{
  "contractName": "RandomGame",
  "abi": [
    {
      "inputs": [],
      "stateMutability": "nonpayable",
      "type": "constructor"
    },
    {
      "inputs": [],
      "name": "randomResult",
      "outputs": [
        {
          "internalType": "uint256",
          "name": "",
          "type": "uint256"
        }
      ],
      "stateMutability": "view",
      "type": "function",
      "constant": true
    },
    {
      "inputs": [
        {
          "internalType": "bytes32",
          "name": "requestId",
          "type": "bytes32"
        },
        {
          "internalType": "uint256",
          "name": "randomness",
          "type": "uint256"
        }
      ],
      "name": "rawFulfillRandomness",
      "outputs": [],
      "stateMutability": "nonpayable",
      "type": "function"
    },
    {
      "inputs": [],
      "name": "getRandomNumber",
      "outputs": [
        {
          "internalType": "bytes32",
          "name": "requestId",
          "type": "bytes32"
        }
      ],
      "stateMutability": "nonpayable",
      "type": "function"
    }
  ],
  "bytecode": "0x60c060405234801561001057600080fd5b5073dd3782915140c8f3b190b5d67eac6dc5760c46e973a36085f69e2889c224210f603d836748e7dc00888173ffffffffffffffffffffffffffffffffffffffff1660a08173ffffffffffffffffffffffffffffffffffffffff1660601b815250508073ffffffffffffffffffffffffffffffffffffffff1660808173ffffffffffffffffffffffffffffffffffffffff1660601b8152505050507f6c3699283bda56ad74f6b855546325b68d482e983852a7a82979cc4807b641f460001b60018190555067016345785d8a000060028190555060805160601c60a05160601c61097761011c6000396000818160a6015261028d015260008181610147015261025101526109776000f3fe608060405234801561001057600080fd5b50600436106100415760003560e01c806342619f661461004657806394985ddd14610064578063dbdff2c114610080575b600080fd5b61004e61009e565b60405161005b9190610785565b60405180910390f35b61007e60048036038101906100799190610498565b6100a4565b005b610088610140565b60405161009591906106bc565b60405180910390f35b60035481565b7f000000000000000000000000000000000000000000000000000000000000000073ffffffffffffffffffffffffffffffffffffffff163373ffffffffffffffffffffffffffffffffffffffff1614610132576040517f08c379a000000000000000000000000000000000000000000000000000000000815260040161012990610765565b60405180910390fd5b61013c8282610242565b5050565b60006002547f000000000000000000000000000000000000000000000000000000000000000073ffffffffffffffffffffffffffffffffffffffff166370a08231306040518263ffffffff1660e01b815260040161019e9190610663565b60206040518083038186803b1580156101b657600080fd5b505afa1580156101ca573d6000803e3d6000fd5b505050506040513d601f19601f820116820180604052508101906101ee91906104d4565b101561022f576040517f08c379a000000000000000000000000000000000000000000000000000000000815260040161022690610745565b60405180910390fd5b61023d60015460025461024d565b905090565b806003819055505050565b60007f000000000000000000000000000000000000000000000000000000000000000073ffffffffffffffffffffffffffffffffffffffff16634000aea07f0000000000000000000000000000000000000000000000000000000000000000848660006040516020016102c19291906106d7565b6040516020818303038152906040526040518463ffffffff1660e01b81526004016102ee9392919061067e565b602060405180830381600087803b15801561030857600080fd5b505af115801561031c573d6000803e3d6000fd5b505050506040513d601f19601f82011682018060405250810190610340919061046f565b50600061036284600030600080898152602001908152602001600020546103ac565b905060016000808681526020019081526020016000205461038391906107cd565b600080868152602001908152602001600020819055506103a384826103e8565b91505092915050565b6000848484846040516020016103c59493929190610700565b6040516020818303038152906040528051906020012060001c9050949350505050565b600082826040516020016103fd929190610637565b60405160208183030381529060405280519060200120905092915050565b60008151905061042a816108fc565b92915050565b60008135905061043f81610913565b92915050565b6000813590506104548161092a565b92915050565b6000815190506104698161092a565b92915050565b60006020828403121561048157600080fd5b600061048f8482850161041b565b91505092915050565b600080604083850312156104ab57600080fd5b60006104b985828601610430565b92505060206104ca85828601610445565b9150509250929050565b6000602082840312156104e657600080fd5b60006104f48482850161045a565b91505092915050565b61050681610823565b82525050565b61051581610841565b82525050565b61052c61052782610841565b6108a8565b82525050565b600061053d826107a0565b61054781856107ab565b9350610557818560208601610875565b610560816108eb565b840191505092915050565b6000610578602b836107bc565b91507f4e6f7420656e6f756768204c494e4b202d2066696c6c20636f6e74726163742060008301527f77697468206661756365740000000000000000000000000000000000000000006020830152604082019050919050565b60006105de601f836107bc565b91507f4f6e6c7920565246436f6f7264696e61746f722063616e2066756c66696c6c006000830152602082019050919050565b61061a8161086b565b82525050565b61063161062c8261086b565b6108b2565b82525050565b6000610643828561051b565b6020820191506106538284610620565b6020820191508190509392505050565b600060208201905061067860008301846104fd565b92915050565b600060608201905061069360008301866104fd565b6106a06020830185610611565b81810360408301526106b28184610532565b9050949350505050565b60006020820190506106d1600083018461050c565b92915050565b60006040820190506106ec600083018561050c565b6106f96020830184610611565b9392505050565b6000608082019050610715600083018761050c565b6107226020830186610611565b61072f60408301856104fd565b61073c6060830184610611565b95945050505050565b6000602082019050818103600083015261075e8161056b565b9050919050565b6000602082019050818103600083015261077e816105d1565b9050919050565b600060208201905061079a6000830184610611565b92915050565b600081519050919050565b600082825260208201905092915050565b600082825260208201905092915050565b60006107d88261086b565b91506107e38361086b565b9250827fffffffffffffffffffffffffffffffffffffffffffffffffffffffffffffffff03821115610818576108176108bc565b5b828201905092915050565b600061082e8261084b565b9050919050565b60008115159050919050565b6000819050919050565b600073ffffffffffffffffffffffffffffffffffffffff82169050919050565b6000819050919050565b60005b83811015610893578082015181840152602081019050610878565b838111156108a2576000848401525b50505050565b6000819050919050565b6000819050919050565b7f4e487b7100000000000000000000000000000000000000000000000000000000600052601160045260246000fd5b6000601f19601f8301169050919050565b61090581610835565b811461091057600080fd5b50565b61091c81610841565b811461092757600080fd5b50565b6109338161086b565b811461093e57600080fd5b5056fea2646970667358221220fae02da30475b86d49133c32914fc38fb265531af0b97cce0ade5eb86f56404064736f6c63430008000033",
  "immutableReferences": {
    "145": [
      {
        "length": 32,
        "start": 327
      },
      {
        "length": 32,
        "start": 593
      }
    ],
    "147": [
      {
        "length": 32,
        "start": 166
      },
      {
        "length": 32,
        "start": 653
      }
    ]
  },
  "source": "pragma solidity ^0.8.0;\r\n\r\nimport \"@chainlink/contracts/src/v0.8/VRFConsumerBase.sol\";\r\n\r\ncontract RandomGame is VRFConsumerBase {\r\n\r\n    bytes32 internal keyHash;\r\n    uint256 internal fee;\r\n    \r\n    uint256 public randomResult;\r\n    \r\n    /**\r\n     * Constructor inherits VRFConsumerBase\r\n     * \r\n     * Network: Kovan\r\n     * Chainlink VRF Coordinator address: 0xdD3782915140c8f3b190B5D67eAc6dc5760C46E9\r\n     * LINK token address:                0xa36085F69e2889c224210F603D836748e7dC0088\r\n     * Key Hash: 0x6c3699283bda56ad74f6b855546325b68d482e983852a7a82979cc4807b641f4\r\n     */\r\n    constructor() \r\n        VRFConsumerBase(\r\n            0xdD3782915140c8f3b190B5D67eAc6dc5760C46E9, // VRF Coordinator\r\n            0xa36085F69e2889c224210F603D836748e7dC0088  // LINK Token\r\n        ) public\r\n    {\r\n        keyHash = 0x6c3699283bda56ad74f6b855546325b68d482e983852a7a82979cc4807b641f4;\r\n        fee = 0.1 * 10 ** 18; // 0.1 LINK (Varies by network)\r\n    }\r\n    \r\n    /** \r\n     * Requests randomness \r\n     */\r\n    function getRandomNumber() public returns (bytes32 requestId) {\r\n        require(LINK.balanceOf(address(this)) >= fee, \"Not enough LINK - fill contract with faucet\");\r\n        return requestRandomness(keyHash, fee);\r\n    }\r\n\r\n    /**\r\n     * Callback function used by VRF Coordinator\r\n     */\r\n    function fulfillRandomness(bytes32 requestId, uint256 randomness) internal override {\r\n        randomResult = randomness;\r\n    }\r\n\r\n    // function withdrawLink() external {} - Implement a withdraw function to avoid locking your LINK in the contract\r\n}\r\n",
  "sourcePath": "C:/Users/JB/Desktop/chainlink/contracts/RandomGame.sol",
  "compiler": {
    "name": "solc",
    "version": "0.8.0+commit.c7dfd78e.Emscripten.clang"
  },
  "schemaVersion": "3.4.1",
  "updatedAt": "2021-07-14T22:50:20.227Z",
  "networkType": "ethereum",
  "devdoc": {
    "kind": "dev",
    "methods": {},
    "version": 1
  },
  "userdoc": {
    "kind": "user",
    "methods": {
      "constructor": {
        "notice": "Constructor inherits VRFConsumerBase  Network: Kovan Chainlink VRF Coordinator address: 0xdD3782915140c8f3b190B5D67eAc6dc5760C46E9 LINK token address:                0xa36085F69e2889c224210F603D836748e7dC0088 Key Hash: 0x6c3699283bda56ad74f6b855546325b68d482e983852a7a82979cc4807b641f4"
      },
      "getRandomNumber()": {
        "notice": "Requests randomness "
      }
    },
    "version": 1
  }
}